{
  "_format": "hh-sol-artifact-1",
  "contractName": "Transactions",
  "sourceName": "contracts/Transactions.sol",
  "abi": [
    {
      "inputs": [
        {
          "internalType": "uint256",
          "name": "initialSupply",
          "type": "uint256"
        }
      ],
      "stateMutability": "nonpayable",
      "type": "constructor"
    },
    {
      "inputs": [
        {
          "internalType": "address",
          "name": "spender",
          "type": "address"
        },
        {
          "internalType": "uint256",
          "name": "allowance",
          "type": "uint256"
        },
        {
          "internalType": "uint256",
          "name": "needed",
          "type": "uint256"
        }
      ],
      "name": "ERC20InsufficientAllowance",
      "type": "error"
    },
    {
      "inputs": [
        {
          "internalType": "address",
          "name": "sender",
          "type": "address"
        },
        {
          "internalType": "uint256",
          "name": "balance",
          "type": "uint256"
        },
        {
          "internalType": "uint256",
          "name": "needed",
          "type": "uint256"
        }
      ],
      "name": "ERC20InsufficientBalance",
      "type": "error"
    },
    {
      "inputs": [
        {
          "internalType": "address",
          "name": "approver",
          "type": "address"
        }
      ],
      "name": "ERC20InvalidApprover",
      "type": "error"
    },
    {
      "inputs": [
        {
          "internalType": "address",
          "name": "receiver",
          "type": "address"
        }
      ],
      "name": "ERC20InvalidReceiver",
      "type": "error"
    },
    {
      "inputs": [
        {
          "internalType": "address",
          "name": "sender",
          "type": "address"
        }
      ],
      "name": "ERC20InvalidSender",
      "type": "error"
    },
    {
      "inputs": [
        {
          "internalType": "address",
          "name": "spender",
          "type": "address"
        }
      ],
      "name": "ERC20InvalidSpender",
      "type": "error"
    },
    {
      "inputs": [
        {
          "internalType": "address",
          "name": "owner",
          "type": "address"
        }
      ],
      "name": "OwnableInvalidOwner",
      "type": "error"
    },
    {
      "inputs": [
        {
          "internalType": "address",
          "name": "account",
          "type": "address"
        }
      ],
      "name": "OwnableUnauthorizedAccount",
      "type": "error"
    },
    {
      "anonymous": false,
      "inputs": [
        {
          "indexed": true,
          "internalType": "address",
          "name": "owner",
          "type": "address"
        },
        {
          "indexed": true,
          "internalType": "address",
          "name": "spender",
          "type": "address"
        },
        {
          "indexed": false,
          "internalType": "uint256",
          "name": "value",
          "type": "uint256"
        }
      ],
      "name": "Approval",
      "type": "event"
    },
    {
      "anonymous": false,
      "inputs": [
        {
          "indexed": true,
          "internalType": "address",
          "name": "previousOwner",
          "type": "address"
        },
        {
          "indexed": true,
          "internalType": "address",
          "name": "newOwner",
          "type": "address"
        }
      ],
      "name": "OwnershipTransferred",
      "type": "event"
    },
    {
      "anonymous": false,
      "inputs": [
        {
          "indexed": false,
          "internalType": "address",
          "name": "from",
          "type": "address"
        },
        {
          "indexed": false,
          "internalType": "address",
          "name": "receiver",
          "type": "address"
        },
        {
          "indexed": false,
          "internalType": "uint256",
          "name": "amount",
          "type": "uint256"
        },
        {
          "indexed": false,
          "internalType": "string",
          "name": "message",
          "type": "string"
        },
        {
          "indexed": false,
          "internalType": "string",
          "name": "category",
          "type": "string"
        },
        {
          "indexed": false,
          "internalType": "string[]",
          "name": "tags",
          "type": "string[]"
        },
        {
          "indexed": false,
          "internalType": "uint256",
          "name": "timestamp",
          "type": "uint256"
        }
      ],
      "name": "TransactionAdded",
      "type": "event"
    },
    {
      "anonymous": false,
      "inputs": [
        {
          "indexed": true,
          "internalType": "address",
          "name": "from",
          "type": "address"
        },
        {
          "indexed": true,
          "internalType": "address",
          "name": "to",
          "type": "address"
        },
        {
          "indexed": false,
          "internalType": "uint256",
          "name": "value",
          "type": "uint256"
        }
      ],
      "name": "Transfer",
      "type": "event"
    },
    {
      "inputs": [
        {
          "internalType": "address",
          "name": "receiver",
          "type": "address"
        },
        {
          "internalType": "uint256",
          "name": "amount",
          "type": "uint256"
        },
        {
          "internalType": "string",
          "name": "message",
          "type": "string"
        },
        {
          "internalType": "string",
          "name": "category",
          "type": "string"
        },
        {
          "internalType": "string[]",
          "name": "tags",
          "type": "string[]"
        }
      ],
      "name": "addToBlockchain",
      "outputs": [],
      "stateMutability": "nonpayable",
      "type": "function"
    },
    {
      "inputs": [
        {
          "internalType": "address[]",
          "name": "receivers",
          "type": "address[]"
        },
        {
          "internalType": "uint256[]",
          "name": "amounts",
          "type": "uint256[]"
        },
        {
          "internalType": "string",
          "name": "message",
          "type": "string"
        },
        {
          "internalType": "string",
          "name": "category",
          "type": "string"
        },
        {
          "internalType": "string[]",
          "name": "tags",
          "type": "string[]"
        }
      ],
      "name": "addToBlockchainBatch",
      "outputs": [],
      "stateMutability": "nonpayable",
      "type": "function"
    },
    {
      "inputs": [
        {
          "internalType": "address",
          "name": "owner",
          "type": "address"
        },
        {
          "internalType": "address",
          "name": "spender",
          "type": "address"
        }
      ],
      "name": "allowance",
      "outputs": [
        {
          "internalType": "uint256",
          "name": "",
          "type": "uint256"
        }
      ],
      "stateMutability": "view",
      "type": "function"
    },
    {
      "inputs": [
        {
          "internalType": "address",
          "name": "spender",
          "type": "address"
        },
        {
          "internalType": "uint256",
          "name": "value",
          "type": "uint256"
        }
      ],
      "name": "approve",
      "outputs": [
        {
          "internalType": "bool",
          "name": "",
          "type": "bool"
        }
      ],
      "stateMutability": "nonpayable",
      "type": "function"
    },
    {
      "inputs": [
        {
          "internalType": "address",
          "name": "account",
          "type": "address"
        }
      ],
      "name": "balanceOf",
      "outputs": [
        {
          "internalType": "uint256",
          "name": "",
          "type": "uint256"
        }
      ],
      "stateMutability": "view",
      "type": "function"
    },
    {
      "inputs": [],
      "name": "decimals",
      "outputs": [
        {
          "internalType": "uint8",
          "name": "",
          "type": "uint8"
        }
      ],
      "stateMutability": "view",
      "type": "function"
    },
    {
      "inputs": [],
      "name": "feePercentage",
      "outputs": [
        {
          "internalType": "uint256",
          "name": "",
          "type": "uint256"
        }
      ],
      "stateMutability": "view",
      "type": "function"
    },
    {
      "inputs": [],
      "name": "getAllTransactions",
      "outputs": [
        {
          "components": [
            {
              "internalType": "address",
              "name": "sender",
              "type": "address"
            },
            {
              "internalType": "address",
              "name": "receiver",
              "type": "address"
            },
            {
              "internalType": "uint256",
              "name": "amount",
              "type": "uint256"
            },
            {
              "internalType": "string",
              "name": "message",
              "type": "string"
            },
            {
              "internalType": "string",
              "name": "category",
              "type": "string"
            },
            {
              "internalType": "string[]",
              "name": "tags",
              "type": "string[]"
            },
            {
              "internalType": "uint256",
              "name": "timestamp",
              "type": "uint256"
            }
          ],
          "internalType": "struct Transactions.TransferStruct[]",
          "name": "",
          "type": "tuple[]"
        }
      ],
      "stateMutability": "view",
      "type": "function"
    },
    {
      "inputs": [],
      "name": "getTransactionCount",
      "outputs": [
        {
          "internalType": "uint256",
          "name": "",
          "type": "uint256"
        }
      ],
      "stateMutability": "view",
      "type": "function"
    },
    {
      "inputs": [],
      "name": "name",
      "outputs": [
        {
          "internalType": "string",
          "name": "",
          "type": "string"
        }
      ],
      "stateMutability": "view",
      "type": "function"
    },
    {
      "inputs": [],
      "name": "owner",
      "outputs": [
        {
          "internalType": "address",
          "name": "",
          "type": "address"
        }
      ],
      "stateMutability": "view",
      "type": "function"
    },
    {
      "inputs": [],
      "name": "renounceOwnership",
      "outputs": [],
      "stateMutability": "nonpayable",
      "type": "function"
    },
    {
      "inputs": [
        {
          "internalType": "uint256",
          "name": "_feePercentage",
          "type": "uint256"
        }
      ],
      "name": "setFeePercentage",
      "outputs": [],
      "stateMutability": "nonpayable",
      "type": "function"
    },
    {
      "inputs": [],
      "name": "symbol",
      "outputs": [
        {
          "internalType": "string",
          "name": "",
          "type": "string"
        }
      ],
      "stateMutability": "view",
      "type": "function"
    },
    {
      "inputs": [],
      "name": "totalSupply",
      "outputs": [
        {
          "internalType": "uint256",
          "name": "",
          "type": "uint256"
        }
      ],
      "stateMutability": "view",
      "type": "function"
    },
    {
      "inputs": [
        {
          "internalType": "address",
          "name": "to",
          "type": "address"
        },
        {
          "internalType": "uint256",
          "name": "value",
          "type": "uint256"
        }
      ],
      "name": "transfer",
      "outputs": [
        {
          "internalType": "bool",
          "name": "",
          "type": "bool"
        }
      ],
      "stateMutability": "nonpayable",
      "type": "function"
    },
    {
      "inputs": [
        {
          "internalType": "address",
          "name": "from",
          "type": "address"
        },
        {
          "internalType": "address",
          "name": "to",
          "type": "address"
        },
        {
          "internalType": "uint256",
          "name": "value",
          "type": "uint256"
        }
      ],
      "name": "transferFrom",
      "outputs": [
        {
          "internalType": "bool",
          "name": "",
          "type": "bool"
        }
      ],
      "stateMutability": "nonpayable",
      "type": "function"
    },
    {
      "inputs": [
        {
          "internalType": "address",
          "name": "newOwner",
          "type": "address"
        }
      ],
      "name": "transferOwnership",
      "outputs": [],
      "stateMutability": "nonpayable",
      "type": "function"
    }
  ],
  "bytecode": "0x6080604052606460075534801561001557600080fd5b50604051611b34380380611b348339810160408190526100349161028f565b336040518060400160405280600781526020016626bcaa37b5b2b760c91b815250604051806040016040528060038152602001624d544b60e81b81525081600390816100809190610347565b50600461008d8282610347565b5050506001600160a01b0381166100bf57604051631e4fbdf760e01b8152600060048201526024015b60405180910390fd5b6100c8816100d9565b506100d3338261012b565b5061042c565b600580546001600160a01b038381166001600160a01b0319831681179093556040519116919082907f8be0079c531659141344cd1fd0a4f28419497f9722a3daafe3b4186f6b6457e090600090a35050565b6001600160a01b0382166101555760405163ec442f0560e01b8152600060048201526024016100b6565b61016160008383610165565b5050565b6001600160a01b0383166101905780600260008282546101859190610405565b909155506102029050565b6001600160a01b038316600090815260208190526040902054818110156101e35760405163391434e360e21b81526001600160a01b038516600482015260248101829052604481018390526064016100b6565b6001600160a01b03841660009081526020819052604090209082900390555b6001600160a01b03821661021e5760028054829003905561023d565b6001600160a01b03821660009081526020819052604090208054820190555b816001600160a01b0316836001600160a01b03167fddf252ad1be2c89b69c2b068fc378daa952ba7f163c4a11628f55a4df523b3ef8360405161028291815260200190565b60405180910390a3505050565b6000602082840312156102a157600080fd5b5051919050565b634e487b7160e01b600052604160045260246000fd5b600181811c908216806102d257607f821691505b6020821081036102f257634e487b7160e01b600052602260045260246000fd5b50919050565b601f82111561034257806000526020600020601f840160051c8101602085101561031f5750805b601f840160051c820191505b8181101561033f576000815560010161032b565b50505b505050565b81516001600160401b03811115610360576103606102a8565b6103748161036e84546102be565b846102f8565b6020601f8211600181146103a857600083156103905750848201515b600019600385901b1c1916600184901b17845561033f565b600084815260208120601f198516915b828110156103d857878501518255602094850194600190920191016103b8565b50848210156103f65786840151600019600387901b60f8161c191681555b50505050600190811b01905550565b8082018082111561042657634e487b7160e01b600052601160045260246000fd5b92915050565b6116f98061043b6000396000f3fe608060405234801561001057600080fd5b50600436106101165760003560e01c80638da5cb5b116100a2578063ae06c1b711610071578063ae06c1b71461021f578063c3d372b414610232578063dd62ed3e14610245578063f2fde38b1461027e578063fed2a9ce1461029157600080fd5b80638da5cb5b146101e057806395d89b41146101fb578063a001ecdd14610203578063a9059cbb1461020c57600080fd5b806327506f53116100e957806327506f53146101815780632e7700f014610196578063313ce5671461019e57806370a08231146101ad578063715018a6146101d657600080fd5b806306fdde031461011b578063095ea7b31461013957806318160ddd1461015c57806323b872dd1461016e575b600080fd5b6101236102a4565b6040516101309190610ea1565b60405180910390f35b61014c610147366004610ed7565b610336565b6040519015158152602001610130565b6002545b604051908152602001610130565b61014c61017c366004610f01565b610350565b610189610374565b6040516101309190610f9a565b600654610160565b60405160128152602001610130565b6101606101bb366004611079565b6001600160a01b031660009081526020819052604090205490565b6101de610608565b005b6005546040516001600160a01b039091168152602001610130565b61012361061c565b61016060075481565b61014c61021a366004610ed7565b61062b565b6101de61022d366004611094565b610639565b6101de61024036600461121a565b610695565b6101606102533660046112c9565b6001600160a01b03918216600090815260016020908152604080832093909416825291909152205490565b6101de61028c366004611079565b6106a9565b6101de61029f3660046113bf565b6106e7565b6060600380546102b390611440565b80601f01602080910402602001604051908101604052809291908181526020018280546102df90611440565b801561032c5780601f106103015761010080835404028352916020019161032c565b820191906000526020600020905b81548152906001019060200180831161030f57829003601f168201915b5050505050905090565b60003361034481858561078c565b60019150505b92915050565b60003361035e85828561079e565b61036985858561081c565b506001949350505050565b60606006805480602002602001604051908101604052809291908181526020016000905b828210156105ff5760008481526020908190206040805160e0810182526007860290920180546001600160a01b039081168452600182015416938301939093526002830154908201526003820180549192916060840191906103f990611440565b80601f016020809104026020016040519081016040528092919081815260200182805461042590611440565b80156104725780601f1061044757610100808354040283529160200191610472565b820191906000526020600020905b81548152906001019060200180831161045557829003601f168201915b5050505050815260200160048201805461048b90611440565b80601f01602080910402602001604051908101604052809291908181526020018280546104b790611440565b80156105045780601f106104d957610100808354040283529160200191610504565b820191906000526020600020905b8154815290600101906020018083116104e757829003601f168201915b5050505050815260200160058201805480602002602001604051908101604052809291908181526020016000905b828210156105de57838290600052602060002001805461055190611440565b80601f016020809104026020016040519081016040528092919081815260200182805461057d90611440565b80156105ca5780601f1061059f576101008083540402835291602001916105ca565b820191906000526020600020905b8154815290600101906020018083116105ad57829003601f168201915b505050505081526020019060010190610532565b50505050815260200160068201548152505081526020019060010190610398565b50505050905090565b61061061087b565b61061a60006108a8565b565b6060600480546102b390611440565b60003361034481858561081c565b61064161087b565b6103e88111156106905760405162461bcd60e51b81526020600482015260156024820152744665652063616e6e6f74206578636565642031302560581b60448201526064015b60405180910390fd5b600755565b6106a285858585856108fa565b5050505050565b6106b161087b565b6001600160a01b0381166106db57604051631e4fbdf760e01b815260006004820152602401610687565b6106e4816108a8565b50565b83518551146107315760405162461bcd60e51b8152602060048201526016602482015275082e4e4c2f2e640d8cadccee8d040dad2e6dac2e8c6d60531b6044820152606401610687565b60005b85518110156107845761077c8682815181106107525761075261147a565b602002602001015186838151811061076c5761076c61147a565b60200260200101518686866108fa565b600101610734565b505050505050565b6107998383836001610b9f565b505050565b6001600160a01b038381166000908152600160209081526040808320938616835292905220546000198114610816578181101561080757604051637dc7a0d960e11b81526001600160a01b03841660048201526024810182905260448101839052606401610687565b61081684848484036000610b9f565b50505050565b6001600160a01b03831661084657604051634b637e8f60e11b815260006004820152602401610687565b6001600160a01b0382166108705760405163ec442f0560e01b815260006004820152602401610687565b610799838383610c74565b6005546001600160a01b0316331461061a5760405163118cdaa760e01b8152336004820152602401610687565b600580546001600160a01b038381166001600160a01b0319831681179093556040519116919082907f8be0079c531659141344cd1fd0a4f28419497f9722a3daafe3b4186f6b6457e090600090a35050565b6000841161094a5760405162461bcd60e51b815260206004820152601d60248201527f416d6f756e74206d7573742062652067726561746572207468616e20300000006044820152606401610687565b336000908152602081905260409020548411156109a05760405162461bcd60e51b8152602060048201526014602482015273496e73756666696369656e742062616c616e636560601b6044820152606401610687565b6000612710600754866109b391906114a6565b6109bd91906114bd565b905060006109cb82876114df565b90506109d833888361081c565b81156109fa576109fa336109f46005546001600160a01b031690565b8461081c565b6040805160e0810182523381526001600160a01b0389811660208301908152928201898152606083018981526080840189905260a084018890524260c085015260068054600181018255600091909152845160079091027ff652222313e28459528d920b65115c16c04f3efc82aaedc97be59f3f377c0d3f810180549286166001600160a01b031993841617815596517ff652222313e28459528d920b65115c16c04f3efc82aaedc97be59f3f377c0d40820180549190961692169190911790935590517ff652222313e28459528d920b65115c16c04f3efc82aaedc97be59f3f377c0d41830155519192917ff652222313e28459528d920b65115c16c04f3efc82aaedc97be59f3f377c0d4290910190610b159082611539565b5060808201516004820190610b2a9082611539565b5060a08201518051610b46916005840191602090910190610d9e565b5060c0820151816006015550507f08dfc6666ffea280853ee00b7428a03848894aa6ed1f55a791b5b9c8979023c833888888888842604051610b8e97969594939291906115f8565b60405180910390a150505050505050565b6001600160a01b038416610bc95760405163e602df0560e01b815260006004820152602401610687565b6001600160a01b038316610bf357604051634a1406b160e11b815260006004820152602401610687565b6001600160a01b038085166000908152600160209081526040808320938716835292905220829055801561081657826001600160a01b0316846001600160a01b03167f8c5be1e5ebec7d5bd14f71427d1e84f3dd0314c0f7b2291e5b200ac8c7c3b92584604051610c6691815260200190565b60405180910390a350505050565b6001600160a01b038316610c9f578060026000828254610c9491906116b0565b90915550610d119050565b6001600160a01b03831660009081526020819052604090205481811015610cf25760405163391434e360e21b81526001600160a01b03851660048201526024810182905260448101839052606401610687565b6001600160a01b03841660009081526020819052604090209082900390555b6001600160a01b038216610d2d57600280548290039055610d4c565b6001600160a01b03821660009081526020819052604090208054820190555b816001600160a01b0316836001600160a01b03167fddf252ad1be2c89b69c2b068fc378daa952ba7f163c4a11628f55a4df523b3ef83604051610d9191815260200190565b60405180910390a3505050565b828054828255906000526020600020908101928215610de4579160200282015b82811115610de45782518290610dd49082611539565b5091602001919060010190610dbe565b50610df0929150610df4565b5090565b80821115610df0576000610e088282610e11565b50600101610df4565b508054610e1d90611440565b6000825580601f10610e2d575050565b601f0160209004906000526020600020908101906106e491905b80821115610df05760008155600101610e47565b6000815180845260005b81811015610e8157602081850181015186830182015201610e65565b506000602082860101526020601f19601f83011685010191505092915050565b602081526000610eb46020830184610e5b565b9392505050565b80356001600160a01b0381168114610ed257600080fd5b919050565b60008060408385031215610eea57600080fd5b610ef383610ebb565b946020939093013593505050565b600080600060608486031215610f1657600080fd5b610f1f84610ebb565b9250610f2d60208501610ebb565b929592945050506040919091013590565b600082825180855260208501945060208160051b8301016020850160005b83811015610f8e57601f19858403018852610f78838351610e5b565b6020988901989093509190910190600101610f5c565b50909695505050505050565b6000602082016020835280845180835260408501915060408160051b86010192506020860160005b8281101561106d57603f19878603018452815160018060a01b03815116865260018060a01b03602082015116602087015260408101516040870152606081015160e0606088015261101660e0880182610e5b565b90506080820151878203608089015261102f8282610e5b565b91505060a082015187820360a08901526110498282610f3e565b60c09384015198909301979097525094506020938401939190910190600101610fc2565b50929695505050505050565b60006020828403121561108b57600080fd5b610eb482610ebb565b6000602082840312156110a657600080fd5b5035919050565b634e487b7160e01b600052604160045260246000fd5b604051601f8201601f1916810167ffffffffffffffff811182821017156110ec576110ec6110ad565b604052919050565b600082601f83011261110557600080fd5b813567ffffffffffffffff81111561111f5761111f6110ad565b611132601f8201601f19166020016110c3565b81815284602083860101111561114757600080fd5b816020850160208301376000918101602001919091529392505050565b600067ffffffffffffffff82111561117e5761117e6110ad565b5060051b60200190565b600082601f83011261119957600080fd5b81356111ac6111a782611164565b6110c3565b8082825260208201915060208360051b8601019250858311156111ce57600080fd5b602085015b8381101561121057803567ffffffffffffffff8111156111f257600080fd5b611201886020838a01016110f4565b845250602092830192016111d3565b5095945050505050565b600080600080600060a0868803121561123257600080fd5b61123b86610ebb565b945060208601359350604086013567ffffffffffffffff81111561125e57600080fd5b61126a888289016110f4565b935050606086013567ffffffffffffffff81111561128757600080fd5b611293888289016110f4565b925050608086013567ffffffffffffffff8111156112b057600080fd5b6112bc88828901611188565b9150509295509295909350565b600080604083850312156112dc57600080fd5b6112e583610ebb565b91506112f360208401610ebb565b90509250929050565b600082601f83011261130d57600080fd5b813561131b6111a782611164565b8082825260208201915060208360051b86010192508583111561133d57600080fd5b602085015b838110156112105761135381610ebb565b835260209283019201611342565b600082601f83011261137257600080fd5b81356113806111a782611164565b8082825260208201915060208360051b8601019250858311156113a257600080fd5b602085015b838110156112105780358352602092830192016113a7565b600080600080600060a086880312156113d757600080fd5b853567ffffffffffffffff8111156113ee57600080fd5b6113fa888289016112fc565b955050602086013567ffffffffffffffff81111561141757600080fd5b61142388828901611361565b945050604086013567ffffffffffffffff81111561125e57600080fd5b600181811c9082168061145457607f821691505b60208210810361147457634e487b7160e01b600052602260045260246000fd5b50919050565b634e487b7160e01b600052603260045260246000fd5b634e487b7160e01b600052601160045260246000fd5b808202811582820484141761034a5761034a611490565b6000826114da57634e487b7160e01b600052601260045260246000fd5b500490565b8181038181111561034a5761034a611490565b601f82111561079957806000526020600020601f840160051c810160208510156115195750805b601f840160051c820191505b818110156106a25760008155600101611525565b815167ffffffffffffffff811115611553576115536110ad565b611567816115618454611440565b846114f2565b6020601f82116001811461159b57600083156115835750848201515b600019600385901b1c1916600184901b1784556106a2565b600084815260208120601f198516915b828110156115cb57878501518255602094850194600190920191016115ab565b50848210156115e95786840151600019600387901b60f8161c191681555b50505050600190811b01905550565b6001600160a01b038881168252871660208201526040810186905260e06060820181905260009061162b90830187610e5b565b828103608084015261163d8187610e5b565b905082810360a084015280855180835260208301915060208160051b8401016020880160005b8381101561169557601f1986840301855261167f838351610e5b565b6020958601959093509190910190600101611663565b5050809450505050508260c083015298975050505050505050565b8082018082111561034a5761034a61149056fea2646970667358221220023b14e6a65585ea2b4d0fe294e28eb64598bf5e5a27c8ed81af7117910f5a3f64736f6c634300081b0033",
  "linkReferences": {},
  "deployedLinkReferences": {}
}