{
  "_format": "hh-sol-artifact-1",
  "contractName": "Transactions",
  "sourceName": "contracts/Transactions.sol",
  "abi": [
    {
      "inputs": [
        {
          "internalType": "uint256",
          "name": "initialSupply",
          "type": "uint256"
        }
      ],
      "stateMutability": "nonpayable",
      "type": "constructor"
    },
    {
      "inputs": [
        {
          "internalType": "address",
          "name": "spender",
          "type": "address"
        },
        {
          "internalType": "uint256",
          "name": "allowance",
          "type": "uint256"
        },
        {
          "internalType": "uint256",
          "name": "needed",
          "type": "uint256"
        }
      ],
      "name": "ERC20InsufficientAllowance",
      "type": "error"
    },
    {
      "inputs": [
        {
          "internalType": "address",
          "name": "sender",
          "type": "address"
        },
        {
          "internalType": "uint256",
          "name": "balance",
          "type": "uint256"
        },
        {
          "internalType": "uint256",
          "name": "needed",
          "type": "uint256"
        }
      ],
      "name": "ERC20InsufficientBalance",
      "type": "error"
    },
    {
      "inputs": [
        {
          "internalType": "address",
          "name": "approver",
          "type": "address"
        }
      ],
      "name": "ERC20InvalidApprover",
      "type": "error"
    },
    {
      "inputs": [
        {
          "internalType": "address",
          "name": "receiver",
          "type": "address"
        }
      ],
      "name": "ERC20InvalidReceiver",
      "type": "error"
    },
    {
      "inputs": [
        {
          "internalType": "address",
          "name": "sender",
          "type": "address"
        }
      ],
      "name": "ERC20InvalidSender",
      "type": "error"
    },
    {
      "inputs": [
        {
          "internalType": "address",
          "name": "spender",
          "type": "address"
        }
      ],
      "name": "ERC20InvalidSpender",
      "type": "error"
    },
    {
      "anonymous": false,
      "inputs": [
        {
          "indexed": true,
          "internalType": "address",
          "name": "owner",
          "type": "address"
        },
        {
          "indexed": true,
          "internalType": "address",
          "name": "spender",
          "type": "address"
        },
        {
          "indexed": false,
          "internalType": "uint256",
          "name": "value",
          "type": "uint256"
        }
      ],
      "name": "Approval",
      "type": "event"
    },
    {
      "anonymous": false,
      "inputs": [
        {
          "indexed": false,
          "internalType": "address",
          "name": "from",
          "type": "address"
        },
        {
          "indexed": false,
          "internalType": "address",
          "name": "receiver",
          "type": "address"
        },
        {
          "indexed": false,
          "internalType": "uint256",
          "name": "amount",
          "type": "uint256"
        },
        {
          "indexed": false,
          "internalType": "string",
          "name": "message",
          "type": "string"
        },
        {
          "indexed": false,
          "internalType": "uint256",
          "name": "timestamp",
          "type": "uint256"
        }
      ],
      "name": "TransactionAdded",
      "type": "event"
    },
    {
      "anonymous": false,
      "inputs": [
        {
          "indexed": true,
          "internalType": "address",
          "name": "from",
          "type": "address"
        },
        {
          "indexed": true,
          "internalType": "address",
          "name": "to",
          "type": "address"
        },
        {
          "indexed": false,
          "internalType": "uint256",
          "name": "value",
          "type": "uint256"
        }
      ],
      "name": "Transfer",
      "type": "event"
    },
    {
      "inputs": [
        {
          "internalType": "address",
          "name": "receiver",
          "type": "address"
        },
        {
          "internalType": "uint256",
          "name": "amount",
          "type": "uint256"
        },
        {
          "internalType": "string",
          "name": "message",
          "type": "string"
        }
      ],
      "name": "addToBlockchain",
      "outputs": [],
      "stateMutability": "nonpayable",
      "type": "function"
    },
    {
      "inputs": [
        {
          "internalType": "address",
          "name": "owner",
          "type": "address"
        },
        {
          "internalType": "address",
          "name": "spender",
          "type": "address"
        }
      ],
      "name": "allowance",
      "outputs": [
        {
          "internalType": "uint256",
          "name": "",
          "type": "uint256"
        }
      ],
      "stateMutability": "view",
      "type": "function"
    },
    {
      "inputs": [
        {
          "internalType": "address",
          "name": "spender",
          "type": "address"
        },
        {
          "internalType": "uint256",
          "name": "value",
          "type": "uint256"
        }
      ],
      "name": "approve",
      "outputs": [
        {
          "internalType": "bool",
          "name": "",
          "type": "bool"
        }
      ],
      "stateMutability": "nonpayable",
      "type": "function"
    },
    {
      "inputs": [
        {
          "internalType": "address",
          "name": "account",
          "type": "address"
        }
      ],
      "name": "balanceOf",
      "outputs": [
        {
          "internalType": "uint256",
          "name": "",
          "type": "uint256"
        }
      ],
      "stateMutability": "view",
      "type": "function"
    },
    {
      "inputs": [],
      "name": "decimals",
      "outputs": [
        {
          "internalType": "uint8",
          "name": "",
          "type": "uint8"
        }
      ],
      "stateMutability": "view",
      "type": "function"
    },
    {
      "inputs": [],
      "name": "getAllTransactions",
      "outputs": [
        {
          "components": [
            {
              "internalType": "address",
              "name": "sender",
              "type": "address"
            },
            {
              "internalType": "address",
              "name": "receiver",
              "type": "address"
            },
            {
              "internalType": "uint256",
              "name": "amount",
              "type": "uint256"
            },
            {
              "internalType": "string",
              "name": "message",
              "type": "string"
            },
            {
              "internalType": "uint256",
              "name": "timestamp",
              "type": "uint256"
            }
          ],
          "internalType": "struct Transactions.TransferStruct[]",
          "name": "",
          "type": "tuple[]"
        }
      ],
      "stateMutability": "view",
      "type": "function"
    },
    {
      "inputs": [],
      "name": "getTransactionCount",
      "outputs": [
        {
          "internalType": "uint256",
          "name": "",
          "type": "uint256"
        }
      ],
      "stateMutability": "view",
      "type": "function"
    },
    {
      "inputs": [],
      "name": "name",
      "outputs": [
        {
          "internalType": "string",
          "name": "",
          "type": "string"
        }
      ],
      "stateMutability": "view",
      "type": "function"
    },
    {
      "inputs": [],
      "name": "symbol",
      "outputs": [
        {
          "internalType": "string",
          "name": "",
          "type": "string"
        }
      ],
      "stateMutability": "view",
      "type": "function"
    },
    {
      "inputs": [],
      "name": "totalSupply",
      "outputs": [
        {
          "internalType": "uint256",
          "name": "",
          "type": "uint256"
        }
      ],
      "stateMutability": "view",
      "type": "function"
    },
    {
      "inputs": [
        {
          "internalType": "address",
          "name": "to",
          "type": "address"
        },
        {
          "internalType": "uint256",
          "name": "value",
          "type": "uint256"
        }
      ],
      "name": "transfer",
      "outputs": [
        {
          "internalType": "bool",
          "name": "",
          "type": "bool"
        }
      ],
      "stateMutability": "nonpayable",
      "type": "function"
    },
    {
      "inputs": [
        {
          "internalType": "address",
          "name": "from",
          "type": "address"
        },
        {
          "internalType": "address",
          "name": "to",
          "type": "address"
        },
        {
          "internalType": "uint256",
          "name": "value",
          "type": "uint256"
        }
      ],
      "name": "transferFrom",
      "outputs": [
        {
          "internalType": "bool",
          "name": "",
          "type": "bool"
        }
      ],
      "stateMutability": "nonpayable",
      "type": "function"
    }
  ],
  "bytecode": "0x608060405234801561001057600080fd5b5060405161114e38038061114e83398101604081905261002f91610209565b6040518060400160405280600781526020016626bcaa37b5b2b760c91b815250604051806040016040528060038152602001624d544b60e81b815250816003908161007a91906102c1565b50600461008782826102c1565b50505061009a33826100a060201b60201c565b506103a6565b6001600160a01b0382166100cf5760405163ec442f0560e01b8152600060048201526024015b60405180910390fd5b6100db600083836100df565b5050565b6001600160a01b03831661010a5780600260008282546100ff919061037f565b9091555061017c9050565b6001600160a01b0383166000908152602081905260409020548181101561015d5760405163391434e360e21b81526001600160a01b038516600482015260248101829052604481018390526064016100c6565b6001600160a01b03841660009081526020819052604090209082900390555b6001600160a01b038216610198576002805482900390556101b7565b6001600160a01b03821660009081526020819052604090208054820190555b816001600160a01b0316836001600160a01b03167fddf252ad1be2c89b69c2b068fc378daa952ba7f163c4a11628f55a4df523b3ef836040516101fc91815260200190565b60405180910390a3505050565b60006020828403121561021b57600080fd5b5051919050565b634e487b7160e01b600052604160045260246000fd5b600181811c9082168061024c57607f821691505b60208210810361026c57634e487b7160e01b600052602260045260246000fd5b50919050565b601f8211156102bc57806000526020600020601f840160051c810160208510156102995750805b601f840160051c820191505b818110156102b957600081556001016102a5565b50505b505050565b81516001600160401b038111156102da576102da610222565b6102ee816102e88454610238565b84610272565b6020601f821160018114610322576000831561030a5750848201515b600019600385901b1c1916600184901b1784556102b9565b600084815260208120601f198516915b828110156103525787850151825560209485019460019092019101610332565b50848210156103705786840151600019600387901b60f8161c191681555b50505050600190811b01905550565b808201808211156103a057634e487b7160e01b600052601160045260246000fd5b92915050565b610d99806103b56000396000f3fe608060405234801561001057600080fd5b50600436106100b45760003560e01c8063313ce56711610071578063313ce5671461013c57806370a082311461014b57806395d89b4114610174578063a9059cbb1461017c578063dd62ed3e1461018f578063eb12da4a146101c857600080fd5b806306fdde03146100b9578063095ea7b3146100d757806318160ddd146100fa57806323b872dd1461010c57806327506f531461011f5780632e7700f014610134575b600080fd5b6100c16101dd565b6040516100ce9190610937565b60405180910390f35b6100ea6100e536600461096d565b61026f565b60405190151581526020016100ce565b6002545b6040519081526020016100ce565b6100ea61011a366004610997565b610289565b6101276102ad565b6040516100ce91906109d4565b6005546100fe565b604051601281526020016100ce565b6100fe610159366004610a7f565b6001600160a01b031660009081526020819052604090205490565b6100c16103d6565b6100ea61018a36600461096d565b6103e5565b6100fe61019d366004610a9a565b6001600160a01b03918216600090815260016020908152604080832093909416825291909152205490565b6101db6101d6366004610ae3565b6103f3565b005b6060600380546101ec90610bb6565b80601f016020809104026020016040519081016040528092919081815260200182805461021890610bb6565b80156102655780601f1061023a57610100808354040283529160200191610265565b820191906000526020600020905b81548152906001019060200180831161024857829003601f168201915b5050505050905090565b60003361027d818585610603565b60019150505b92915050565b600033610297858285610615565b6102a2858585610693565b506001949350505050565b60606005805480602002602001604051908101604052809291908181526020016000905b828210156103cd5760008481526020908190206040805160a0810182526005860290920180546001600160a01b0390811684526001820154169383019390935260028301549082015260038201805491929160608401919061033290610bb6565b80601f016020809104026020016040519081016040528092919081815260200182805461035e90610bb6565b80156103ab5780601f10610380576101008083540402835291602001916103ab565b820191906000526020600020905b81548152906001019060200180831161038e57829003601f168201915b50505050508152602001600482015481525050815260200190600101906102d1565b50505050905090565b6060600480546101ec90610bb6565b60003361027d818585610693565b600082116104485760405162461bcd60e51b815260206004820152601d60248201527f416d6f756e74206d7573742062652067726561746572207468616e203000000060448201526064015b60405180910390fd5b3360009081526020819052604090205482111561049e5760405162461bcd60e51b8152602060048201526014602482015273496e73756666696369656e742062616c616e636560601b604482015260640161043f565b6104a9338484610693565b6040805160a0810182523381526001600160a01b038581166020830190815292820185815260608301858152426080850152600580546001810182556000829052855191027f036b6384b5eca791c62761152d0c79bb0604c104a5fb6f4eb0703f3154bb3db0810180549286166001600160a01b031993841617815596517f036b6384b5eca791c62761152d0c79bb0604c104a5fb6f4eb0703f3154bb3db1820180549190961692169190911790935590517f036b6384b5eca791c62761152d0c79bb0604c104a5fb6f4eb0703f3154bb3db2830155519192917f036b6384b5eca791c62761152d0c79bb0604c104a5fb6f4eb0703f3154bb3db3909101906105b29082610c3e565b506080820151816004015550507f552357f853bba0d404a3097bb2ffd92f50546bf8d7f27b232fe97bce3778b6f233848484426040516105f6959493929190610cfd565b60405180910390a1505050565b61061083838360016106f2565b505050565b6001600160a01b03838116600090815260016020908152604080832093861683529290522054600019811461068d578181101561067e57604051637dc7a0d960e11b81526001600160a01b0384166004820152602481018290526044810183905260640161043f565b61068d848484840360006106f2565b50505050565b6001600160a01b0383166106bd57604051634b637e8f60e11b81526000600482015260240161043f565b6001600160a01b0382166106e75760405163ec442f0560e01b81526000600482015260240161043f565b6106108383836107c7565b6001600160a01b03841661071c5760405163e602df0560e01b81526000600482015260240161043f565b6001600160a01b03831661074657604051634a1406b160e11b81526000600482015260240161043f565b6001600160a01b038085166000908152600160209081526040808320938716835292905220829055801561068d57826001600160a01b0316846001600160a01b03167f8c5be1e5ebec7d5bd14f71427d1e84f3dd0314c0f7b2291e5b200ac8c7c3b925846040516107b991815260200190565b60405180910390a350505050565b6001600160a01b0383166107f25780600260008282546107e79190610d42565b909155506108649050565b6001600160a01b038316600090815260208190526040902054818110156108455760405163391434e360e21b81526001600160a01b0385166004820152602481018290526044810183905260640161043f565b6001600160a01b03841660009081526020819052604090209082900390555b6001600160a01b0382166108805760028054829003905561089f565b6001600160a01b03821660009081526020819052604090208054820190555b816001600160a01b0316836001600160a01b03167fddf252ad1be2c89b69c2b068fc378daa952ba7f163c4a11628f55a4df523b3ef836040516108e491815260200190565b60405180910390a3505050565b6000815180845260005b81811015610917576020818501810151868301820152016108fb565b506000602082860101526020601f19601f83011685010191505092915050565b60208152600061094a60208301846108f1565b9392505050565b80356001600160a01b038116811461096857600080fd5b919050565b6000806040838503121561098057600080fd5b61098983610951565b946020939093013593505050565b6000806000606084860312156109ac57600080fd5b6109b584610951565b92506109c360208501610951565b929592945050506040919091013590565b6000602082016020835280845180835260408501915060408160051b86010192506020860160005b82811015610a7357603f19878603018452815160018060a01b03815116865260018060a01b03602082015116602087015260408101516040870152606081015160a06060880152610a5060a08801826108f1565b6080928301519790920196909652945060209384019391909101906001016109fc565b50929695505050505050565b600060208284031215610a9157600080fd5b61094a82610951565b60008060408385031215610aad57600080fd5b610ab683610951565b9150610ac460208401610951565b90509250929050565b634e487b7160e01b600052604160045260246000fd5b600080600060608486031215610af857600080fd5b610b0184610951565b925060208401359150604084013567ffffffffffffffff811115610b2457600080fd5b8401601f81018613610b3557600080fd5b803567ffffffffffffffff811115610b4f57610b4f610acd565b604051601f8201601f19908116603f0116810167ffffffffffffffff81118282101715610b7e57610b7e610acd565b604052818152828201602001881015610b9657600080fd5b816020840160208301376000602083830101528093505050509250925092565b600181811c90821680610bca57607f821691505b602082108103610bea57634e487b7160e01b600052602260045260246000fd5b50919050565b601f82111561061057806000526020600020601f840160051c81016020851015610c175750805b601f840160051c820191505b81811015610c375760008155600101610c23565b5050505050565b815167ffffffffffffffff811115610c5857610c58610acd565b610c6c81610c668454610bb6565b84610bf0565b6020601f821160018114610ca05760008315610c885750848201515b600019600385901b1c1916600184901b178455610c37565b600084815260208120601f198516915b82811015610cd05787850151825560209485019460019092019101610cb0565b5084821015610cee5786840151600019600387901b60f8161c191681555b50505050600190811b01905550565b6001600160a01b038681168252851660208201526040810184905260a060608201819052600090610d30908301856108f1565b90508260808301529695505050505050565b8082018082111561028357634e487b7160e01b600052601160045260246000fdfea26469706673582212207b478ce79fdd860b98c75bcb1ef66ed923254140b413d14168714e9f4282288064736f6c634300081b0033",
  "linkReferences": {},
  "deployedLinkReferences": {}
}